:020000040800F2
:100000000000022065220008C5200008D320000857
:10001000D9200008DF200008E520000800000000CB
:1000200000000000000000000000000091B4000883
:10003000EB20000800000000D1B60008F9200008FD
:10004000B5220008B5220008B5220008B522000834
:10005000B5220008B5220008B5220008B522000824
:10006000B5220008B5220008B5220008B522000814
:10007000B5220008B5220008B5220008B522000804
:10008000B5220008B5220008B522000800000000D3
:10009000000000000000000000000000B522000881
:1000A000B5220008B5220008B5220008B5220008D4
:1000B000B5220008B5220008B5220008B5220008C4
:1000C000B5220008B5220008B5220008B5220008B4
:1000D000B5220008B5220008B52200080000000083
:1000E000B5220008B5220008B52200080000000073
:1000F000000000000000000000000000B522000821
:1001000000000000B5220008B5220008B522000852
:1001100000000000000000000000000000000000DF
:10012000B5220008B5220008B5220008B522000853
:10013000B5220008000000000000000000000000E0
:100140000000000000000000000000001521000871
:10015000B5220008B5220008B5220008B522000823
:10016000B5220008B52200080000000000000000D1
:10017000000000000000000000000000000000007F
:1001800000000000B5220008000000000000000090
:08019000B5220008B5220008A9
:1001A00010B5054C237833B9044B13B10448AFF3B1
:1001B00000800123237010BD5C03002000000000BC
:1001C00004EE000808B5034B1BB103490348AFF325
:1001D000008008BD000000006003002004EE00085D
:1001E000034613F8012B002AFBD1181A0138704777
:1001F00001F0FF01102A2BDB10F0070F08D010F8D8
:10020000013B013A8B422DD010F0070F42B3F6D1DB
:10021000F0B441EA012141EA014122F007047FF0F4
:1002200000070023F0E80256083C85EA010586EA4B
:10023000010685FA47F5A3FA87F586FA47F6A5FA87
:1002400087F68EB9EED1F0BC01F0FF0102F0070293
:1002500032B110F8013B013A83EA010313B1F8D13E
:100260000020704701387047002D06BF354603381F
:10027000073815F0010F07D1013015F4807F02BF58
:10028000013015F4C03F0130F0BC0138704700BFA9
:1002900081F0004102E000BF83F0004330B54FEA37
:1002A00041044FEA430594EA050F08BF90EA020FA4
:1002B0001FBF54EA000C55EA020C7FEA645C7FEA37
:1002C000655C00F0E2804FEA5454D4EB5555B8BF5A
:1002D0006D420CDD2C4480EA020281EA030382EACB
:1002E000000083EA010180EA020281EA0303362D5D
:1002F00088BF30BD11F0004F4FEA01314FF4801C30
:100300004CEA113102D0404261EB410113F0004F41
:100310004FEA03334CEA133302D0524263EB4303F8
:1003200094EA050F00F0A780A4F10104D5F1200E96
:100330000DDB02FA0EFC22FA05F2801841F10001F1
:1003400003FA0EF2801843FA05F359410EE0A5F1C5
:1003500020050EF1200E012A03FA0EFC28BF4CF0F6
:10036000020C43FA05F3C01851EBE37101F00045AC
:1003700007D54FF0000EDCF1000C7EEB00006EEBB9
:100380000101B1F5801F1BD3B1F5001F0CD3490843
:100390005FEA30004FEA3C0C04F101044FEA44529A
:1003A00012F5800F80F09A80BCF1004F08BF5FEA21
:1003B000500C50F1000041EB045141EA050130BD01
:1003C0005FEA4C0C404141EB010111F4801FA4F1A4
:1003D0000104E9D191F0000F04BF01460020B1FAF9
:1003E00081F308BF2033A3F10B03B3F120020CDA31
:1003F0000C3208DD02F1140CC2F10C0201FA0CF00F
:1004000021FA02F10CE002F11402D8BFC2F1200C73
:1004100001FA02F120FA0CFCDCBF41EA0C01904029
:10042000E41AA2BF01EB0451294330BD6FEA040472
:100430001F3C1CDA0C340EDC04F11404C4F120025D
:1004400020FA04F001FA02F340EA030021FA04F36F
:1004500045EA030130BDC4F10C04C4F1200220FAC6
:1004600002F001FA04F340EA0300294630BD21FA04
:1004700004F0294630BD94F0000F83F4801306BFCA
:1004800081F480110134013D4EE77FEA645C18BFBE
:100490007FEA655C29D094EA050F08BF90EA020F55
:1004A00005D054EA000C04BF1946104630BD91EA4D
:1004B000030F1EBF0021002030BD5FEA545C05D150
:1004C0004000494128BF41F0004130BD14F580048F
:1004D0003CBF01F5801130BD01F0004545F0FE4103
:1004E00041F470014FF0000030BD7FEA645C1ABF38
:1004F000194610467FEA655C1CBF0B46024650EA6F
:10050000013406BF52EA033591EA030F41F400219A
:1005100030BD00BF90F0000F04BF0021704730B520
:100520004FF4806404F132044FF000054FF00001F5
:1005300050E700BF90F0000F04BF0021704730B5B6
:100540004FF4806404F1320410F0004548BF40428B
:100550004FF000013EE700BF42004FEAE2014FEAE0
:1005600031014FEA02701FBF12F07F4393F07F4FBB
:1005700081F06051704732F07F4208BF704793F0BE
:100580007F4F04BF41F40021704730B54FF46074D1
:1005900001F0004521F000411CE700BF50EA0102D4
:1005A00008BF704730B54FF000050AE050EA01027D
:1005B00008BF704730B511F0004502D5404261EBED
:1005C00041014FF4806404F132045FEA915C3FF42E
:1005D000D8AE4FF003025FEADC0C18BF03325FEACB
:1005E000DC0C18BF033202EBDC02C2F1200300FA7C
:1005F00003FC20FA02F001FA03FE40EA0E0021FAA1
:1006000002F11444BDE600BF70B54FF0FF0C4CF48E
:10061000E06C1CEA11541DBF1CEA135594EA0C0F40
:1006200095EA0C0F00F0DEF82C4481EA030621EA7B
:100630004C5123EA4C5350EA013518BF52EA0335B6
:1006400041F4801143F4801338D0A0FB02CE4FF068
:100650000005E1FB02E506F00042E0FB03E54FF098
:100660000006E1FB03569CF0000F18BF4EF0010E90
:10067000A4F1FF04B6F5007F64F5407404D25FEA8C
:100680004E0E6D4146EB060642EAC62141EA55513F
:100690004FEAC52040EA5E504FEACE2EB4F1FD0C81
:1006A00088BFBCF5E06F1ED8BEF1004F08BF5FEAFF
:1006B000500E50F1000041EB045170BD06F00046B1
:1006C00046EA010140EA020081EA0301B4EB5C045E
:1006D000C2BFD4EB0C0541EA045170BD41F4801156
:1006E0004FF0000E013C00F3AB8014F1360FDEBF7B
:1006F000002001F0004170BDC4F10004203C35DA57
:100700000C341BDC04F11404C4F1200500FA05F3D9
:1007100020FA04F001FA05F240EA020001F000427A
:1007200021F0004110EBD37021FA04F642EB0601F0
:100730005EEA430E08BF20EAD37070BDC4F10C041A
:10074000C4F1200500FA04F320FA05F001FA04F2DE
:1007500040EA020001F0004110EBD37041F10001CA
:100760005EEA430E08BF20EAD37070BDC4F12005D5
:1007700000FA05F24EEA020E20FA04F301FA05F23D
:1007800043EA020321FA04F001F0004121FA04F2E5
:1007900020EA020000EBD3705EEA430E08BF20EAB5
:1007A000D37070BD94F0000F0FD101F000464000EF
:1007B00041EB010111F4801F08BF013CF7D041EA71
:1007C000060195F0000F18BF704703F00046520075
:1007D00043EB030313F4801F08BF013DF7D043EA46
:1007E0000603704794EA0C0F0CEA135518BF95EAFC
:1007F0000C0F0CD050EA410618BF52EA4306D1D183
:1008000081EA030101F000414FF0000070BD50EAA1
:10081000410606BF1046194652EA430619D094EA2B
:100820000C0F02D150EA013613D195EA0C0F05D115
:1008300052EA03361CBF104619460AD181EA030169
:1008400001F0004141F0FE4141F470014FF0000021
:1008500070BD41F0FE4141F4780170BD70B54FF0BC
:10086000FF0C4CF4E06C1CEA11541DBF1CEA13553C
:1008700094EA0C0F95EA0C0F00F0A7F8A4EB05041E
:1008800081EA030E52EA03354FEA013100F0888015
:100890004FEA03334FF0805545EA131343EA1263DE
:1008A0004FEA022245EA111545EA10654FEA002693
:1008B0000EF000419D4208BF964244F1FD0404F54C
:1008C000407402D25B084FEA3202B61A65EB0305A8
:1008D0005B084FEA32024FF480104FF4002CB6EB65
:1008E000020E75EB030E22BFB61A754640EA0C00E5
:1008F0005B084FEA3202B6EB020E75EB030E22BF25
:10090000B61A754640EA5C005B084FEA3202B6EB65
:10091000020E75EB030E22BFB61A754640EA9C0024
:100920005B084FEA3202B6EB020E75EB030E22BFF4
:10093000B61A754640EADC0055EA060E18D04FEAB2
:10094000051545EA16754FEA06164FEAC30343EA52
:1009500052734FEAC2025FEA1C1CC0D111F4801F1F
:100960000BD141EA00014FF000004FF0004CB6E718
:1009700011F4801F04BF01430020B4F1FD0C88BFB7
:10098000BCF5E06F3FF6AFAEB5EB030C04BFB6EBC2
:10099000020C5FEA500C50F1000041EB045170BDB5
:1009A0000EF0004E4EEA113114EB5C04C2BFD4EBE2
:1009B0000C0541EA045170BD41F480114FF0000E66
:1009C000013C90E645EA060E8DE60CEA135594EAE2
:1009D0000C0F08BF95EA0C0F3FF43BAF94EA0C0FE5
:1009E0000AD150EA01347FF434AF95EA0C0F7FF45A
:1009F00025AF104619462CE795EA0C0F06D152EAAE
:100A000003353FF4FDAE1046194622E750EA410691
:100A100018BF52EA43067FF4C5AE50EA41047FF4A2
:100A20000DAF52EA43057FF4EBAE12E74FF0FF3C07
:100A300006E000BF4FF0010C02E000BF4FF0010CD8
:100A40004DF804CD4FEA410C7FEA6C5C4FEA430C51
:100A500018BF7FEA6C5C1BD001B050EA410C0CBFA0
:100A600052EA430C91EA030F02BF90EA020F002002
:100A7000704710F1000F91EA030F58BF994208BF69
:100A800090422CBFD8176FEAE37040F00100704726
:100A90004FEA410C7FEA6C5C02D150EA013C07D17D
:100AA0004FEA430C7FEA6C5CD6D152EA033CD3D0C8
:100AB0005DF8040B704700BF8446104662468C46C2
:100AC0001946634600E000BF01B5FFF7B7FF0028F5
:100AD00048BF10F1000F01BD4DF808EDFFF7F4FF1E
:100AE0000CBF012000205DF808FB00BF4DF808EDA9
:100AF000FFF7EAFF34BF012000205DF808FB00BFCC
:100B00004DF808EDFFF7E0FF94BF012000205DF8ED
:100B100008FB00BF4DF808EDFFF7CEFF94BF0120A2
:100B200000205DF808FB00BF4DF808EDFFF7C4FF9B
:100B300034BF012000205DF808FB00BF4FEA410CE4
:100B40007FEA6C5C02D150EA013C0AD14FEA430CC7
:100B50007FEA6C5C02D152EA033C02D14FF0000004
:100B600070474FF0010070474FEA410212F5001242
:100B700015D211D56FF47873B3EB625212D94FEAE4
:100B8000C12343F0004343EA505311F0004F23FACE
:100B900002F018BF404270474FF00000704750EA23
:100BA000013005D111F0004008BF6FF000407047E0
:100BB0004FF00000704700BF4FEA4102B2F1E0433E
:100BC00024BFB3F5001CDCF1FE5C0DD901F0004C34
:100BD0004FEAC0024CEA5070B2F1004F40EB830084
:100BE00008BF20F00100704711F0804F21D113F1B0
:100BF0003872BCBF01F00040704741F480114FEAE9
:100C00005252C2F11802C2F1200C10FA0CF320FA71
:100C100002F018BF40F001004FEAC1234FEAD3238E
:100C200003FA0CFC40EA0C0023FA02F34FEA4303F8
:100C3000CCE77FEA625307D150EA01331EBF4FF081
:100C4000FE4040F44000704701F0004040F0FE409C
:100C500040F40000704700BF53B94AB9002908BFEB
:100C600000281CBF4FF0FF314FF0FF3000F072B989
:100C7000ADF1080C6DE904CE00F006F8DDF804E0F3
:100C8000DDE9022304B070472DE9F047089E0446D1
:100C90008846002B4BD18A42154667D9B2FA82F2B8
:100CA0004AB1C2F1200701FA02F320FA07F7954092
:100CB00047EA030894404FEA154E230CB8FBFEF7B1
:100CC0001FFA85FC0EFB178843EA084307FB0CF16B
:100CD000994209D9EB1807F1FF3080F01B81994246
:100CE00040F21881023F2B445B1AA4B2B3FBFEF022
:100CF0000EFB103344EA034400FB0CFCA44509D965
:100D00002C1900F1FF3380F00781A44540F20481E3
:100D100002382C4440EA0740A4EB0C0400271EB123
:100D2000D4400023C6E900433946BDE8F0878B4232
:100D300009D9002E00F0EB800027C6E900013846F3
:100D40003946BDE8F087B3FA83F7002F47D18B42CD
:100D500002D3824200F2FA80841A61EB030301207D
:100D60009846002EE0D0C6E90048DDE702B9FFDE74
:100D7000B2FA82F2002A40F08F80491B4FEA154EEA
:100D80001FFA85F80127B1FBFEFC230C0EFB1C119A
:100D900043EA014308FB0CF1994207D9EB180CF127
:100DA000FF3002D2994200F2CD808446591AA3B294
:100DB000B1FBFEF00EFB101443EA044408FB00F8FC
:100DC000A04507D92C1900F1FF3302D2A04500F24B
:100DD000B6801846A4EB080440EA0C409FE7C7F130
:100DE000200CBB4022FA0CFE4EEA030E01FA07F477
:100DF00020FA0CF521FA0CF34FEA1E482543B3FB09
:100E0000F8F92C0C08FB19331FFA8EFA44EA034355
:100E100009FB0AF49C4202FA07F200FA07F10BD927
:100E20001EEB030309F1FF3080F087809C4240F203
:100E30008480A9F1020973441B1BADB2B3FBF8F027
:100E400008FB103345EA034400FB0AFAA24508D91F
:100E50001EEB040400F1FF336BD2A24569D90238BE
:100E6000744440EA0940A0FB0289A4EB0A044C4503
:100E7000C2464B4654D351D0002E69D0B1EB0A057F
:100E800064EB030404FA0CFCFD40FC404CEA05054D
:100E9000C6E90054002747E7C2F1200320FA03F710
:100EA000954001FA02F021FA03F34FEA154E384358
:100EB000010CB3FBFEF71FFA85F80EFB173341EA6E
:100EC000034107FB08F38B4204FA02F407D96918BF
:100ED00007F1FF3C2FD28B422DD9023F2944CB1A78
:100EE00081B2B3FBFEF00EFB103341EA034100FB7D
:100EF00008F38B4207D9691800F1FF3C17D28B42E7
:100F000015D902382944C91A40EA07473BE7374652
:100F1000304609E70746E7E61846FBE64145ABD20F
:100F2000B8EB020A69EB0E0201381346A4E76046EB
:100F3000E9E7184695E76746D1E781467CE702383E
:100F40002C4447E7ACF1020C2B442FE7384608E766
:100F50003746E9E6704700BF80B485B000AFF8605F
:100F6000B9607A60FB68074A1A60BB68064A1A6073
:100F70007B6880221A6000BF1437BD465DF8047B91
:100F8000704700BF78030020CC03002080B483B0FA
:100F900000AF78604FF06043D3F8803E03F0010368
:100FA000002B13D04FF06043D3F8003E03F0010351
:100FB000002B0BD000E000BF4FF060431B68002BFC
:100FC000F9D04FF060437A68D2B21A707B68184645
:100FD0000C37BD465DF8047B704780B586B000AF26
:100FE000F860B9607A6000237B6100237B6109E0CF
:100FF000BB685A1CBA601B781846FFF7C7FF7B69AD
:1010000001337B617A697B689A42F1DB7B68184621
:101010001837BD4680BD000080B586B004AF0346DA
:10102000FB710B46BB7113467B71FB795B00FB7157
:10103000FB7999B2BB799AB20A23029301230193F7
:101040007B1D00930123044801F0B0FD03461846C0
:101050000837BD4680BD00BF4843002080B586B03C
:1010600004AF3A601A460346FB710B46BB71134648
:101070007B717B79012B06D9FB791E2B03D1BB79C0
:1010800063F07F03BB71FB795B00FB71FB7999B265
:10109000BB7998B27B799BB27A79029201933B68D3
:1010A000009301230246034801F07AFE00BF08378F
:1010B000BD4680BD4843002080B500AF0A2001F046
:1010C0006DF96E224F211E20FFF7A6FF642001F06C
:1010D00065F9842260211E20FFF79EFF00BF80BDBE
:1010E00080B586B004AF0346FB710B46BB71134657
:1010F0007B71FB795B00FB71FB7999B2BB799AB28A
:101100000A230293012301937B1D009301230448CA
:1011100001F04CFD034618460837BD4680BD00BFB0
:101120004843002080B586B004AF3A601A460346B3
:10113000FB710B46BB7113467B717B79012B06D982
:10114000FB79192B03D1BB7963F07F03BB71FB796A
:101150005B00FB71FB7999B2BB7998B27B799BB24A
:101160007A79029201933B68009301230246034877
:1011700001F016FE00BF0837BD4680BD4843002081
:1011800080B500AF0A2001F009F96E224F211E2020
:10119000FFF7A6FF642001F001F947222021192062
:1011A000FFF79EFF982223211920FFF799FF00BF28
:1011B00080BD80B483B000AF00237B6000237B60E0
:1011C00003E000BF7B6801337B607B68632BF8D949
:1011D00000BF0C37BD465DF8047B704780B586B014
:1011E00002AF0346FB71FB7963F07F03FB71FB7970
:1011F0009BB2FB8100220821154801F085FBFFF717
:10120000D8FF07F10C0207F10E010223009301231E
:10121000104805F0A8F9FFF7CCFF07F10E010131E6
:1012200007F10C020132022300930123094805F063
:101230009AF901220821064801F066FBFFF7B9FF81
:10124000BB891B0A9BB2DBB218461037BD4680BD76
:10125000001002409C43002080B584B000AF0346DC
:101260000A46FB711346BB71FB791AB2BB791B02AC
:101270001BB213431BB29BB2FB8100220821104812
:1012800001F042FBFFF795FF07F10E010223012257
:101290000C4804F02BFFFFF78CFF07F10E01013122
:1012A00002230122074804F021FF012208210448FB
:1012B00001F02AFBFFF77DFF00BF1037BD4680BD60
:1012C000001002409C43002080B582B000AF03466E
:1012D0003960FB711346BB71FB7963F03F03DBB2EE
:1012E000FB71002208210F4801F00EFBFFF761FFA0
:1012F000F91D0A2301220C4804F0F8FEFFF759FFFC
:10130000BB799AB2BB793968074805F023F8012206
:101310000821044801F0F8FAFFF74BFF00BF083737
:10132000BD4680BD001002409C43002080B582B0C5
:1013300000AF0F20FFF752FF0346FB71FB79D42B60
:1013400003D0FB79D32B00D0FEE74F212020FFF7FD
:1013500083FF10212320FFF77FFF00BF0837BD4622
:1013600080BD00000000000090B589B000AF78603B
:101370004B4B1B681A684A4B1B6842F001021A600B
:10138000FFF79AFE4AF6AB23BB820023FB7797F95F
:101390001F20D3B20133DBB2FB7713B2FB8207F11C
:1013A00014031A1D062368211E20FFF757FEB7F904
:1013B000183007EE903AF8EEE77A17EE900AFFF74A
:1013C000CBF84FF00002374BFFF71EF903460C46EF
:1013D0001846214630A3D3E90023FFF715F9034649
:1013E0000C4618462146FFF7E7FB0346BB60B7F9FA
:1013F0001A3007EE903AF8EEE77A17EE900AFFF708
:10140000ABF84FF00002274BFFF7FEF803460C46FF
:101410001846214620A3D3E90023FFF7F5F8034639
:101420000C4618462146FFF7C7FB0346FB60B7F999
:101430001C3007EE903AF8EEE77A17EE900AFFF7C5
:101440008BF84FF00002174BFFF7DEF803460C460F
:101450001846214610A3D3E90023FFF7D5F8034629
:101460000C4618462146FFF7A7FB03463B610E4B8F
:10147000186807F1080164230C2208F015FC0B4BD7
:101480001B68184609F038F9094B1B68184609F023
:10149000F5F97CE7AFF30080FCA9F1D24D62503F33
:1014A000484300200000F83FDC050020CC05002068
:1014B000D005002080B588B000AF7860304B1B6845
:1014C0001A682F4B1B6842F001021A60FFF758FEA2
:1014D0004AF6AB23BB820023FB7797F91F20D3B2D8
:1014E0000133DBB2FB7713B2FB8207F114031A1D41
:1014F000062328211920FFF715FEB7F9183007EE4B
:10150000903AF8EEE77AB2EE007A27EE877ADFEDCE
:101510001D6AC7EE267AC7ED027AB7F91A3007EED0
:10152000903AF8EEE77AB2EE007A27EE877ADFEDAE
:10153000156AC7EE267AC7ED037AB7F91C3007EEB5
:10154000903AF8EEE77AB2EE007A27EE877ADFED8E
:101550000D6AC7EE267AC7ED047A0B4B186807F1BF
:10156000080164230C2208F09FFB084B1B681846F7
:1015700009F0C2F8064B1B68184609F07FF9ACE782
:101580004843002000008047E0050020D0050020EF
:10159000D40500200000000090B58BB000AF78604B
:1015A000354B1B681A68344B1B6842F040021A60C6
:1015B00001220821314801F0A7F9FFF7B7FE4AF6EA
:1015C000AB233B83002387F8273097F927301BB2E2
:1015D0007B8307F118030433062219462820FFF7FE
:1015E00073FEB7F91C301846FEF7A4FF20A3D3E919
:1015F0000023FFF709F803460C4618462146FFF77B
:10160000DBFA0346FB60B7F91E301846FEF792FF7F
:1016100017A3D3E90023FEF7F7FF03460C4618464D
:101620002146FFF7C9FA03463B61B7F92030184657
:10163000FEF780FF0EA3D3E90023FEF7E5FF034684
:101640000C4618462146FFF7B7FA03467B610C4B60
:10165000186807F10C0164230C2208F025FB094BE4
:101660001B68184609F048F8AFE700BFAFF30080E9
:10167000EC51B81E85EB913F9C43002000100240C6
:10168000E4050020D40500202DE9F04FADF2A44D73
:1016900010AF07F12C0318604B4B186807F13401A9
:1016A00000230C2208F0EEFB484B186807F14C01B0
:1016B00000230C2208F0E6FB454B186807F14001B7
:1016C00000230C2208F0DEFB07F14C031B681846D0
:1016D000FEF742FFC7E9080107F14C035B681846B3
:1016E000FEF73AFFC7E9060107F14C039B6818466D
:1016F000FEF732FFC7E9040107F140031B681846F3
:10170000FEF72AFFC7E9020107F140035B681846AC
:10171000FEF722FFC7E9000107F140039B68184666
:10172000FEF71AFF82468B4607F134031B68184602
:10173000FEF712FF8046894607F134035B681846BE
:10174000FEF70AFF05460E4607F134039B6818466C
:10175000FEF702FF03460C4607F15800CDE90E34B0
:10176000CDE90C56CDE90A89CDE908AB97ED007BB0
:101770008DED067B97ED027B8DED047B97ED047B71
:101780008DED027B97ED067B8DED007BD7E908237D
:1017900010490BF0D3FC0346C7F85C34D7F85C342F
:1017A0009AB207F15803114618460AF0BBFA07F53A
:1017B0008B633221184608F0F1FE074B1B68184670
:1017C00009F05CF868E700BFE4050020DC050020B4
:1017D000E005002020EE0008CC050020B0B58EB05A
:1017E00002AF00F069FD00F0B3F800F0F9F900F085
:1017F00033F900F061F900F08DF900F0BBF93F4BCF
:1018000001930323009301234FF400723C493D48A8
:1018100008F08EFDF862FB6A012B02D03A480BF00B
:1018200075FC3A4B01930323009301234FF400729C
:101830003749384808F07CFDB862BB6A012B02D0FA
:1018400035480BF063FC354B0193032300930123D0
:101850004FF400723249334808F06AFD78627B6ABF
:10186000012B02D030480BF051FC304B0193032385
:10187000009301234FF400722D492E4808F058FDC3
:1018800038623B6A012B02D02B480BF03FFC002250
:101890001021102008F07EF90246284B1A60002221
:1018A0001021102008F076F90246254B1A6000221C
:1018B0001021102008F06EF90246224B1A60134BDB
:1018C0001B68184608F018FF144B1B68184608F0F0
:1018D00013FF1D4B3C1D1D460FCD0FC495E807009F
:1018E00084E807003B1D0021184608F03FF8024637
:1018F000164B1A6008F033F8FEE700BFCC05002055
:1019000050EE00086913000860EE0008D0050020C2
:1019100080EE0008B514000890EE0008D405002001
:10192000A8EE000899150008B4EE0008D8050020BC
:10193000CCEE000889160008D8EE0008DC0500206F
:10194000E0050020E405002000EF000844430020EB
:1019500080B59AB000AF07F1380330220021184655
:101960000AF06BFE07F1240300221A605A609A60A5
:10197000DA601A6107F10C0300221A605A609A605B
:10198000DA601A615A610023BB60314B1B6C304A2C
:1019900043F0805313642E4B1B6C03F08053BB60E9
:1019A000BB6800237B602B4B1B682A4A43F44043EF
:1019B0001360284B1B6803F440437B607B68012362
:1019C000BB634FF48033FB6302233B654FF480031A
:1019D0007B650423BB65A823FB6504233B660723C3
:1019E0007B6607F13803184603F080FD0346002BA1
:1019F00001D000F0D9F90F237B620223BB620023E0
:101A0000FB624FF480533B6300237B6307F12403A5
:101A10000221184603F0DAFF0346002B01D000F044
:101A2000C3F90123FB60C8237B6105233B610223CB
:101A3000BB6107F10C03184604F0A6F90346002B1E
:101A400001D000F0B1F900BF6837BD4680BD00BFCE
:101A5000003802400070004080B500AF134B144ABC
:101A60001A60124B134A5A60104B4FF480429A602E
:101A70000E4B0022DA600D4B4FF480421A610B4B83
:101A800000225A61094B00229A61084B0022DA6158
:101A9000064B00221A62054800F050FF0346002B57
:101AA00001D000F081F900BF80BD00BF4843002095
:101AB00000540040801A060080B500AF124B134A54
:101AC0001A60114B4FF400725A600F4B00229A605B
:101AD0000D4B0022DA600C4B00221A610A4B0C4AB3
:101AE0005A61094B00229A61074B0022DA61064BCA
:101AF00001221A62044801F0D5FE0346002B01D0F2
:101B000000F052F900BF80BDF443002000380040CF
:101B10000077010080B500AF134B144A1A60124BD6
:101B20004FF400725A60104B00229A600E4B002254
:101B3000DA600D4B4FF400721A610B4B0C4A5A617C
:101B4000094B00229A61084B0022DA61064B002201
:101B50001A62054801F0A6FE0346002B01D000F0F2
:101B600023F900BF80BD00BF3C440020003C004082
:101B70000077010080B500AF174B184A1A60164B6A
:101B80004FF482725A60144B00229A60124B00226A
:101B9000DA60114B02221A610F4B01225A610E4B7F
:101BA0004FF400729A610C4B1822DA610A4B002242
:101BB0001A62094B00225A62074B00229A62064BB6
:101BC0000A22DA62044804F02DFA0346002B01D001
:101BD00000F0EAF800BF80BD9C43002000300140C7
:101BE00080B58CB000AF07F11C0300221A605A6068
:101BF0009A60DA601A610023BB61604B1B6B5F4A1D
:101C000043F0100313635D4B1B6B03F01003BB61C8
:101C1000BB6900237B61594B1B6B584A43F004039B
:101C20001363564B1B6B03F004037B617B6900233A
:101C30003B61524B1B6B514A43F0800313634F4B84
:101C40001B6B03F080033B613B690023FB604B4B44
:101C50001B6B4A4A43F001031363484B1B6B03F0B1
:101C60000103FB60FB680023BB60444B1B6B434AD2
:101C700043F002031363414B1B6B03F00203BB6091
:101C8000BB6800237B603D4B1B6B3C4A43F0080361
:101C900013633A4B1B6B03F008037B607B680022E5
:101CA0000821374800F030FE01220121354800F0BC
:101CB0002BFE00224FF21001334800F025FE0423D2
:101CC000FB6100233B6200237B6207F11C03194682
:101CD0002B4800F097FC0823FB6101233B620023A3
:101CE0007B620223BB6207F11C031946244800F003
:101CF00089FC3223FB61254B3B6200237B6207F1A9
:101D00001C0319461E4800F07DFC0123FB610123E2
:101D10003B6200237B620023BB6207F11C03194670
:101D2000184800F06FFC0123FB61184B3B62002355
:101D30007B6207F11C031946154800F063FC4FF263
:101D40001003FB6101233B6200237B620023BB6223
:101D500007F11C0319460C4800F054FC2023FB61DA
:101D600000233B6200237B6207F11C0319460648EF
:101D700000F048FC00BF3037BD4680BD003802404F
:101D80000010024000080240000C02400000121047
:101D90000000024080B582B000AF786009F0F0FE2C
:101DA000012007F02FFEFBE780B400AF00BFBD4667
:101DB0005DF8047B7047000080B483B000AF00235F
:101DC0007B60104B5B6C0F4A43F4804353640D4BB4
:101DD0005B6C03F480437B607B6800233B60094BB2
:101DE0001B6C084A43F080531364064B1B6C03F0D2
:101DF00080533B603B6800BF0C37BD465DF8047BF9
:101E0000704700BF0038024080B58AB000AF7860EC
:101E100007F1140300221A605A609A60DA601A61AE
:101E20007B681B68194A93422CD100233B61184BF5
:101E30001B6B174A43F002031363154B1B6B03F034
:101E400002033B613B694FF410737B611223BB615A
:101E50000123FB6100233B6204237B6207F114032F
:101E600019460C4800F0CEFB0023FB60084B1B6CAE
:101E7000074A43F400131364054B1B6C03F400136F
:101E8000FB60FB6800BF2837BD4680BD00540040A2
:101E9000003802400004024080B58EB000AF786088
:101EA00007F1240300221A605A609A60DA601A610E
:101EB0007B681B68594A93425BD100233B62584BB5
:101EC0001B6C574A43F480431364554B1B6C03F45B
:101ED00080433B623B6A0023FB61514B1B6B504AC2
:101EE00043F0040313634E4B1B6B03F00403FB61CD
:101EF000FB690023BB614A4B1B6B494A43F0020359
:101F00001363474B1B6B03F00203BB61BB690423E4
:101F10007B620223BB620023FB6200233B63062338
:101F20007B6307F1240319463E4800F06BFB08234E
:101F30007B620223BB620023FB6200233B63052319
:101F40007B6307F124031946364800F05BFB4FF42E
:101F5000A0537B620223BB620023FB6200233B632E
:101F600005237B6307F1240319462F4800F04AFB41
:101F70004FE07B681B682D4A93424AD100237B6166
:101F8000274B1B6C264A43F400431364244B1B6C01
:101F900003F400437B617B6900233B61204B1B6B97
:101FA0001F4A43F0010313631D4B1B6B03F0010336
:101FB0003B613B690023FB60194B1B6B184A43F0E4
:101FC00004031363164B1B6B03F00403FB60FB68F5
:101FD00010237B620223BB620023FB6200233B636E
:101FE00006237B6307F124031946114800F00AFB1E
:101FF0004FF4A4537B620223BB620023FB620023E5
:102000003B6306237B6307F124031946054800F070
:10201000F9FA00BF3837BD4680BD00BF0038004028
:10202000003802400008024000040240003C00402A
:102030000000024080B58AB000AF786007F1140359
:1020400000221A605A609A60DA601A617B681B6825
:10205000194A93422BD100233B61184B5B6C174A02
:1020600043F480535364154B5B6C03F480533B6122
:102070003B690023FB60114B1B6B104A43F00103CB
:1020800013630E4B1B6B03F00103FB60FB68E02343
:102090007B610223BB610023FB6103233B620523B9
:1020A0007B6207F114031946054800F0ABFA00BF44
:1020B0002837BD4680BD00BF0030014000380240D7
:1020C0000000024080B400AF00BFBD465DF8047B55
:1020D000704780B400AFFEE780B400AFFEE780B485
:1020E00000AFFEE780B400AFFEE780B400AF00BFF2
:1020F000BD465DF8047B704780B500AF00F02EF957
:1021000008F0B0FF0346012B01D009F015FB00BF1A
:1021100080BD000080B500AF024802F0B3F900BFF7
:1021200080BD00BF5859002080B586B000AFF86070
:10213000B9607A6000237B610AE0AFF3008001465A
:10214000BB685A1CBA60CAB21A707B6901337B61E2
:102150007A697B689A42F0DB7B6818461837BD467F
:1021600080BD80B483B000AF78604FF0FF33184675
:102170000C37BD465DF8047B704780B483B000AF78
:10218000786039603B684FF400525A60002318466B
:102190000C37BD465DF8047B704780B483B000AF58
:1021A0007860012318460C37BD465DF8047B704704
:1021B00080B485B000AFF860B9607A60002318463B
:1021C0001437BD465DF8047B7047000080B586B0CB
:1021D00000AF7860144A154BD31A7B617B693B6171
:1021E000134B1B68002B02D1114B124A1A60104B83
:1021F0001A687B6813443A699A4207D20AF0D8F900
:1022000002460C2313604FF0FF3309E0084B1B68B4
:10221000FB60074B1A687B681344054A1360FB6830
:1022200018461837BD4680BD00000220000400009B
:10223000E8050020685D002080B400AF084BD3F8AB
:102240008830074A43F47003C2F88830044B4FF0DB
:1022500000629A6000BFBD465DF8047B704700BF16
:1022600000ED00E0DFF834D0002103E00C4B5B58B8
:10227000435004310B480C4B42189A42F6D30B4A98
:1022800002E0002342F8043B094B9A42F9D3FFF7DE
:10229000D3FF0AF093F9FFF7A1FA7047000002207C
:1022A00048F20008000000205C0300205C030020CE
:1022B000645D0020FEE7000080B500AF0E4B1B6898
:1022C0000D4A43F4007313600B4B1B680A4A43F436
:1022D00080631360084B1B68074A43F480731360E4
:1022E000032000F04DF9002000F008F8FFF764FD2E
:1022F0000023184680BD00BF003C024080B582B07C
:1023000000AF7860124B1A68124B1B7819464FF4D5
:102310007A73B3FBF1F3B2FBF3F3184600F065F9FF
:102320000346002B01D001230EE07B680F2B0AD857
:10233000002279684FF0FF3000F02DF9064A7B68E3
:102340001360002300E0012318460837BD4680BD16
:1023500000000020080000200400002080B400AF2E
:10236000064B1B781A46064B1B681344044A13603D
:1023700000BFBD465DF8047B704700BF0800002029
:102380008444002080B400AF034B1B681846BD4650
:102390005DF8047B704700BF8444002080B584B0A2
:1023A00000AF7860FFF7EEFFB8607B68FB60FB680A
:1023B000B3F1FF3F05D0094B1B781A46FB68134465
:1023C000FB6000BFFFF7DEFF0246BB68D31AFA6866
:1023D0009A42F7D800BF1037BD4680BD08000020E4
:1023E00080B485B000AF78607B6803F00703FB60C2
:1023F0000C4BDB68BB60BA684FF6FF031340BB6051
:10240000FB681A02BB68134343F0BF6343F4003315
:10241000BB60044ABB68D36000BF1437BD465DF89B
:10242000047B704700ED00E080B400AF044BDB6834
:102430001B0A03F007031846BD465DF8047B70478E
:1024400000ED00E080B483B000AF0346FB7197F964
:102450000730002B0BDBFB7903F01F02074997F9CC
:1024600007305B09012000FA02F241F8232000BF87
:102470000C37BD465DF8047B704700BF00E100E00B
:1024800080B483B000AF03463960FB7197F9073021
:10249000002B0ADB3B68DAB20C4997F907301201CE
:1024A000D2B20B4483F800230AE03B68DAB2084951
:1024B000FB7903F00F03043B1201D2B20B441A76EE
:1024C00000BF0C37BD465DF8047B704700E100E0BB
:1024D00000ED00E080B489B000AFF860B9607A60C8
:1024E000FB6803F00703FB61FB69C3F10703042BDF
:1024F00028BF0423BB61FB690433062B02D9FB69A7
:10250000033B00E000237B614FF0FF32BB6902FA1E
:1025100003F3DA43BB681A407B699A404FF0FF31FE
:102520007B6901FA03F3D9437B680B4013431846D8
:102530002437BD465DF8047B7047000080B582B04B
:1025400000AF78607B68013BB3F1807F01D301234A
:102550000FE00A4A7B68013B53600F214FF0FF30C8
:10256000FFF78EFF054B00229A60044B07221A608A
:10257000002318460837BD4680BD00BF10E000E0CC
:1025800080B582B000AF78607868FFF729FF00BFA0
:102590000837BD4680BD80B586B000AF0346B96040
:1025A0007A60FB7300237B61FFF73EFF78617A68F6
:1025B000B9687869FFF78EFF024697F90F30114628
:1025C0001846FFF75DFF00BF1837BD4680BD80B5D8
:1025D00082B000AF0346FB7197F907301846FFF74A
:1025E00031FF00BF0837BD4680BD80B582B000AF67
:1025F00078607868FFF7A2FF034618460837BD46A3
:1026000080BD000080B489B000AF786039600023DD
:102610007B6100233B610023BB610023FB6159E127
:102620000122FB6902FA03F37B613B681B687A694C
:1026300013403B613A697B699A4240F048813B68AC
:102640005B68012B0BD03B685B68022B07D03B68B3
:102650005B68112B03D03B685B68122B30D17B6821
:102660009B68BB61FB695B00032202FA03F3DB4357
:10267000BA691340BB613B68DA68FB695B0002FA28
:1026800003F3BA691343BB617B68BA699A607B68DC
:102690005B68BB610122FB6902FA03F3DB43BA69A1
:1026A0001340BB613B685B681B0903F00102FB69D7
:1026B00002FA03F3BA691343BB617B68BA695A60D3
:1026C0007B68DB68BB61FB695B00032202FA03F3F2
:1026D000DB43BA691340BB613B689A68FB695B00E6
:1026E00002FA03F3BA691343BB617B68BA69DA6023
:1026F0003B685B68022B03D03B685B68122B23D1DD
:10270000FB69DA087B68083253F82230BB61FB6949
:1027100003F007039B000F2202FA03F3DB43BA69BD
:102720001340BB613B681A69FB6903F007039B0018
:1027300002FA03F3BA691343BB61FB69DA087B68E9
:102740000832B96943F822107B681B68BB61FB69DA
:102750005B00032202FA03F3DB43BA691340BB6157
:102760003B685B6803F00302FB695B0002FA03F35A
:10277000BA691343BB617B68BA691A603B685B68DE
:1027800003F08053002B00F0A2800023FB60564B27
:102790005B6C554A43F480435364534B5B6C03F4C6
:1027A0008043FB60FB68514AFB699B08023352F887
:1027B0002330BB61FB6903F003039B000F2202FA85
:1027C00003F3DB43BA691340BB617B68484A934219
:1027D00019D07B68474A934213D07B68464A93429C
:1027E0000DD07B68454A934207D07B68444A9342A8
:1027F00001D1042308E0072306E0032304E00223B9
:1028000002E0012300E00023FA6902F003029200D3
:102810009340BA691343BB613449FB699B08023397
:10282000BA6941F82320374B1B68BB613B69DB4326
:10283000BA691340BB613B685B6803F48033002BCB
:1028400003D0BA693B691343BB612E4ABB6913606D
:102850002C4B5B68BB613B69DB43BA691340BB61CE
:102860003B685B6803F40033002B03D0BA693B6913
:102870001343BB61234ABB695360224B9B68BB6116
:102880003B69DB43BA691340BB613B685B6803F497
:102890008013002B03D0BA693B691343BB61194A0B
:1028A000BB699360174BDB68BB613B69DB43BA696B
:1028B0001340BB613B685B6803F40013002B03D03B
:1028C000BA693B691343BB610E4ABB69D360FB69BC
:1028D0000133FB61FB690F2B7FF6A2AE00BF2437EB
:1028E000BD465DF8047B7047003802400038014067
:1028F000000002400004024000080240000C0240B8
:1029000000100240003C014080B483B000AF78600A
:102910000B467B8013467B707B78002B03D07A8834
:102920007B689A6103E07B881A047B689A6100BF28
:102930000C37BD465DF8047B7047000080B584B05D
:1029400000AF78607B68002B01D101231FE17B6819
:1029500093F83D30DBB2002B06D17B68002283F870
:102960003C207868FFF750FA7B68242283F83D20EA
:102970007B681B681A687B681B6822F001021A607A
:102980007B681B681A687B681B6842F400421A6007
:102990007B681B681A687B681B6822F400421A6017
:1029A00003F0DEF9F8607B685B687B4A934207D8E6
:1029B000FB687A4A934294BF01230023DBB206E00E
:1029C000FB68774A934294BF01230023DBB2002BBC
:1029D00001D00123DBE0FB68724AA2FB03239B0CBE
:1029E000BB607B681B685B6823F03F017B681B68EA
:1029F000BA680A435A607B681B681B6A23F03F0170
:102A00007B685B68644A934202D8BB68013309E083
:102A1000BB684FF4967202FB03F3634AA2FB0323E5
:102A20009B0901337A6812680B4313627B681B6849
:102A3000DB6923F44F4222F0FF027B685B68564952
:102A40008B420DD8FB68591E7B685B685B00B1FB4D
:102A5000F3F30133C3F30B03042B38BF04234FE01C
:102A60007B689B68002B11D1FB68581E7B685968F6
:102A70000B465B000B44B0FBF3F30133C3F30B03D2
:102A8000002B0CBF01230023DBB212E0FB68581EB1
:102A90007B6859680B469B000B4499000B44B0FBC4
:102AA000F3F30133C3F30B03002B0CBF012300230B
:102AB000DBB2002B01D0012322E07B689B68002B56
:102AC0000ED1FB68581E7B6859680B465B000B44AF
:102AD000B0FBF3F30133C3F30B0343F400430FE004
:102AE000FB68581E7B6859680B469B000B44990095
:102AF0000B44B0FBF3F30133C3F30B0343F4404344
:102B0000796809681343CB617B681B681B6823F0F5
:102B1000C0017B68DA697B681B6A1A437B681B68A3
:102B20000A431A607B681B689B6823F4034323F005
:102B3000FF037A6811697A68D26811437A6812686B
:102B40000B4393607B681B68DB6823F0FF017B68A5
:102B50005A697B689B691A437B681B680A43DA6081
:102B60007B681B681A687B681B6842F001021A6068
:102B70007B6800221A647B68202283F83D207B68F2
:102B800000221A637B68002283F83E200023184647
:102B90001037BD4680BD00BFA08601007F841E00A7
:102BA000FF083D0083DE1B43D34D621080B588B023
:102BB00002AFF860084611461A4603467B810B4671
:102BC0003B811346FB80FFF7DDFB7861FB6893F8E0
:102BD0003D30DBB2202B40F0D9807B690093192374
:102BE00001226D49F86800F07FFC0346002B01D0FC
:102BF0000223CCE0FB6893F83C30012B01D1022387
:102C0000C5E0FB68012283F83C20FB681B681B6859
:102C100003F00103012B07D0FB681B681A68FB68EF
:102C20001B6842F001021A60FB681B681A68FB68A7
:102C30001B6822F400621A60FB68212283F83D20A1
:102C4000FB68402283F83E20FB6800221A64FB6880
:102C50003A6A5A62FB68BA8C5A85FB685B8D9AB2F5
:102C6000FB681A85FB684D4ADA62F8883A897989E7
:102C70007B690193BB6A00930346F86800F0B6FADB
:102C80000346002B52D0012381E07A69B96AF868C3
:102C900000F000FD0346002B0DD0FB681B6C042BDD
:102CA00007D1FB681B681A68FB681B6842F4007256
:102CB0001A6001236BE0FB685B6A1A78FB681B688B
:102CC0001A61FB685B6A5A1CFB685A62FB681B8DC1
:102CD000013B9AB2FB681A85FB685B8D9BB2013B96
:102CE0009AB2FB685A85FB681B685B6903F00403B2
:102CF000042B1BD1FB681B8D002B17D0FB685B6A74
:102D00001A78FB681B681A61FB685B6A5A1CFB68CF
:102D10005A62FB681B8D013B9AB2FB681A85FB68FF
:102D20005B8D9BB2013B9AB2FB685A85FB681B8D99
:102D3000002BAAD17A69B96AF86800F0ECFC034666
:102D4000002B0DD0FB681B6C042B07D1FB681B68A4
:102D50001A68FB681B6842F400721A60012316E0CF
:102D6000FB681B681A68FB681B6842F400721A60F3
:102D7000FB68202283F83D20FB68002283F83E2078
:102D8000FB68002283F83C20002300E00223184661
:102D90001837BD4680BD00BF020010000000FFFFD5
:102DA00080B58CB002AFF860084611461A4603465B
:102DB0007B810B463B811346FB80FFF7E3FA786289
:102DC000FB6893F83D30DBB2202B40F008827B6A31
:102DD0000093192301227B49F86800F085FB034624
:102DE000002B01D00223FBE1FB6893F83C30012B60
:102DF00001D10223F4E1FB68012283F83C20FB6847
:102E00001B681B6803F00103012B07D0FB681B68DC
:102E10001A68FB681B6842F001021A60FB681B68B5
:102E20001A68FB681B6822F400621A60FB682222A1
:102E300083F83D20FB68402283F83E20FB68002297
:102E40001A64FB683A6B5A62FB68BA8E5A85FB6853
:102E50005B8D9AB2FB681A85FB685B4ADA62F88878
:102E60003A8979897B6A0193BB6B00930346F868C2
:102E700000F052FA0346002B01D00123B0E1FB68B9
:102E80001B8D002B13D100233B62FB681B685B6921
:102E90003B62FB681B689B693B623B6AFB681B6883
:102EA0001A68FB681B6842F400721A6084E1FB68D0
:102EB0001B8D012B1BD1FB681B681A68FB681B6804
:102EC00022F480621A600023FB61FB681B685B6967
:102ED000FB61FB681B689B69FB61FB69FB681B6806
:102EE0001A68FB681B6842F400721A6064E1FB68B0
:102EF0001B8D022B1BD1FB681B681A68FB681B68C3
:102F000022F480621A60FB681B681A68FB681B6801
:102F100042F400621A600023BB61FB681B685B69B6
:102F2000BB61FB681B689B69BB61BB6944E1002313
:102F30007B61FB681B685B697B61FB681B689B6945
:102F40007B617B6938E1FB681B8D032B00F2F1800C
:102F5000FB681B8D012B23D17A6AB96BF86800F0EE
:102F60001BFC0346002B01D0012339E1FB681B68E1
:102F70001A69FB685B6AD2B21A70FB685B6A5A1CFA
:102F8000FB685A62FB681B8D013B9AB2FB681A858D
:102F9000FB685B8D9BB2013B9AB2FB685A850BE1E3
:102FA000FB681B8D022B4ED17B6A0093BB6B00220A
:102FB0000649F86800F098FA0346002B08D0012370
:102FC0000EE100BF020010000000FFFF040001003E
:102FD000FB681B681A68FB681B6842F400721A6081
:102FE000FB681B681A69FB685B6AD2B21A70FB68DF
:102FF0005B6A5A1CFB685A62FB681B8D013B9AB2E4
:10300000FB681A85FB685B8D9BB2013B9AB2FB683B
:103010005A85FB681B681A69FB685B6AD2B21A7032
:10302000FB685B6A5A1CFB685A62FB681B8D013B9C
:103030009AB2FB681A85FB685B8D9BB2013B9AB222
:10304000FB685A85B8E07B6A0093BB6B0022664937
:10305000F86800F049FA0346002B01D00123BFE0D5
:10306000FB681B681A68FB681B6822F480621A60A0
:10307000FB681B681A69FB685B6AD2B21A70FB684E
:103080005B6A5A1CFB685A62FB681B8D013B9AB253
:10309000FB681A85FB685B8D9BB2013B9AB2FB68AB
:1030A0005A857B6A0093BB6B00224F49F86800F099
:1030B0001BFA0346002B01D0012391E0FB681B683B
:1030C0001A68FB681B6842F400721A60FB681B6890
:1030D0001A69FB685B6AD2B21A70FB685B6A5A1C99
:1030E000FB685A62FB681B8D013B9AB2FB681A852C
:1030F000FB685B8D9BB2013B9AB2FB685A85FB680B
:103100001B681A69FB685B6AD2B21A70FB685B6A5B
:103110005A1CFB685A62FB681B8D013B9AB2FB6824
:103120001A85FB685B8D9BB2013B9AB2FB685A859E
:1031300042E07A6AB96BF86800F02EFB0346002B78
:1031400001D001234CE0FB681B681A69FB685B6ACD
:10315000D2B21A70FB685B6A5A1CFB685A62FB6841
:103160001B8D013B9AB2FB681A85FB685B8D9BB295
:10317000013B9AB2FB685A85FB681B685B6903F0E8
:103180000403042B18D1FB681B681A69FB685B6A8F
:10319000D2B21A70FB685B6A5A1CFB685A62FB6801
:1031A0001B8D013B9AB2FB681A85FB685B8D9BB255
:1031B000013B9AB2FB685A85FB681B8D002B7FF49C
:1031C000C2AEFB68202283F83D20FB68002283F812
:1031D0003E20FB68002283F83C20002300E002230D
:1031E00018462837BD4680BD0400010080B588B070
:1031F00002AFF860084611461A4603467B810B462B
:103200003B811346FB80FB681B681A68FB681B68E0
:1032100042F480721A607B6A00933B6A00224FF08E
:103220000111F86800F060F90346002B0DD0FB682F
:103230001B681B6803F48073B3F5807F03D1FB68C0
:103240004FF400721A6403235FE07B89DBB21A46F5
:10325000FB681B6802F0FE021A617B6A3A6A2D491C
:10326000F86800F098F90346002B01D001234CE0E8
:1032700000237B61FB681B685B697B61FB681B68E3
:103280009B697B617B697A6A396AF86800F002FAA7
:103290000346002B0DD0FB681B6C042B07D1FB6889
:1032A0001B681A68FB681B6842F400721A600123ED
:1032B0002BE0FB88012B05D13B89DAB2FB681B6848
:1032C0001A6121E03B891B0A9BB2DAB2FB681B68DA
:1032D0001A617A6A396AF86800F0DCF90346002B53
:1032E0000DD0FB681B6C042B07D1FB681B681A68A8
:1032F000FB681B6842F400721A60012305E03B89F9
:10330000DAB2FB681B681A61002318461837BD46FD
:1033100080BD00BF0200010080B588B002AFF86038
:10332000084611461A4603467B810B463B811346ED
:10333000FB80FB681B681A68FB681B6842F48062AC
:103340001A60FB681B681A68FB681B6842F480728D
:103350001A607B6A00933B6A00224FF00111F86803
:1033600000F0C2F80346002B0DD0FB681B681B68F9
:1033700003F48073B3F5807F03D1FB684FF40072D0
:103380001A640323AAE07B89DBB21A46FB681B6838
:1033900002F0FE021A617B6A3A6A5249F86800F04C
:1033A000FAF80346002B01D0012397E000237B614C
:1033B000FB681B685B697B61FB681B689B697B61C1
:1033C0007B697A6A396AF86800F064F90346002B71
:1033D0000DD0FB681B6C042B07D1FB681B681A68B7
:1033E000FB681B6842F400721A60012376E0FB88D8
:1033F000012B05D13B89DAB2FB681B681A6121E019
:103400003B891B0A9BB2DAB2FB681B681A617A6AB5
:10341000396AF86800F03EF90346002B0DD0FB68CE
:103420001B6C042B07D1FB681B681A68FB681B68C0
:1034300042F400721A60012350E03B89DAB2FB6863
:103440001B681A617A6A396AF86800F023F9034642
:10345000002B0DD0FB681B6C042B07D1FB681B688D
:103460001A68FB681B6842F400721A60012335E099
:10347000FB681B681A68FB681B6842F480721A605C
:103480007B6A00933B6A00224FF00111F86800F05C
:103490002BF80346002B0DD0FB681B681B6803F458
:1034A0008073B3F5807F03D1FB684FF400721A6418
:1034B000032313E07B89DBB243F00103DAB2FB683C
:1034C0001B681A617B6A3A6A0649F86800F063F87B
:1034D0000346002B01D0012300E0002318461837D3
:1034E000BD4680BD0200010080B584B000AFF86029
:1034F000B9603B601346FB7125E03B68B3F1FF3FC9
:1035000021D0FEF73FFF0246BB69D31A3A689A42C0
:1035100002D33B68002B16D1FB6800221A63FB68BC
:10352000202283F83D20FB68002283F83E20FB68C0
:103530001B6C43F02002FB681A64FB68002283F8CE
:103540003C20012323E0BB681B0CDBB2012B0DD117
:10355000FB681B685B69DA43BB6813409BB2002BB6
:103560000CBF01230023DBB21A460CE0FB681B688A
:103570009B69DA43BB6813409BB2002B0CBF01234D
:103580000023DBB21A46FB799A42B6D000231846D4
:103590001037BD4680BD80B584B000AFF860B9601B
:1035A0007A603B6051E0FB681B685B6903F48063F1
:1035B000B3F5806F23D1FB681B681A68FB681B6832
:1035C00042F400721A60FB681B686FF480625A61F3
:1035D000FB6800221A63FB68202283F83D20FB6809
:1035E000002283F83E20FB681B6C43F00402FB685A
:1035F0001A64FB68002283F83C20012346E07B68C4
:10360000B3F1FF3F21D0FEF7BDFE02463B68D31A5F
:103610007A689A4202D37B68002B16D1FB6800229D
:103620001A63FB68202283F83D20FB68002283F8A0
:103630003E20FB681B6C43F02002FB681A64FB68A9
:10364000002283F83C20012320E0BB681B0CDBB286
:10365000012B0CD1FB681B685B69DA43BB68134024
:103660009BB2002B14BF01230023DBB20BE0FB68ED
:103670001B689B69DA43BB6813409BB2002B14BFE5
:1036800001230023DBB2002B8DD100231846103715
:10369000BD4680BD80B584B000AFF860B9607A6087
:1036A0002DE0F86800F0CEF80346002B01D001238E
:1036B0002DE0BB68B3F1FF3F21D0FEF763FE024669
:1036C0007B68D31ABA689A4202D3BB68002B16D122
:1036D000FB6800221A63FB68202283F83D20FB6808
:1036E000002283F83E20FB681B6C43F02002FB683D
:1036F0001A64FB68002283F83C20012307E0FB6882
:103700001B685B6903F08003802BCAD10023184635
:103710001037BD4680BD80B584B000AFF860B96099
:103720007A602DE0F86800F08DF80346002B01D098
:1037300001232DE0BB68B3F1FF3F21D0FEF722FE4D
:1037400002467B68D31ABA689A4202D3BB68002B40
:1037500016D1FB6800221A63FB68202283F83D2003
:10376000FB68002283F83E20FB681B6C43F02002BC
:10377000FB681A64FB68002283F83C20012307E001
:10378000FB681B685B6903F00403042BCAD10023A8
:1037900018461037BD4680BD80B584B000AFF860D4
:1037A000B9607A6042E0FB681B685B6903F0100354
:1037B000102B19D1FB681B686FF010025A61FB686F
:1037C00000221A63FB68202283F83D20FB68002258
:1037D00083F83E20FB681A6CFB681A64FB680022C1
:1037E00083F83C20012329E0FEF7CCFD02467B68EC
:1037F000D31ABA689A4202D3BB68002B16D1FB6871
:1038000000221A63FB68202283F83D20FB68002217
:1038100083F83E20FB681B6C43F02002FB681A64AF
:10382000FB68002283F83C20012307E0FB681B684B
:103830005B6903F04003402BB5D1002318461037D5
:10384000BD4680BD80B483B000AF78607B681B68E4
:103850005B6903F48063B3F5806F1BD17B681B68E1
:103860006FF480625A617B6800221A637B682022B1
:1038700083F83D207B68002283F83E207B681B6C28
:1038800043F004027B681A647B68002283F83C20C2
:10389000012300E0002318460C37BD465DF8047B89
:1038A0007047000080B588B000AF78607B68002B5F
:1038B00001D1012328E17B6893F84130DBB2002B72
:1038C00009D17B68002283F840207B68904A5A63C4
:1038D0007868FEF7E1FA7B68022283F841207B6872
:1038E0001B68DB697A68126823F47B6323F00F039B
:1038F000D3617B681B6802221A627B685B69022BBA
:1039000060D07B68DB68002B02D110237B6101E073
:1039100020237B617B689B68202B02D87B695B003E
:103920007B61012002F020FBF8607B681B69B3F526
:10393000007F25D17B68DB68002B10D07B699B0062
:10394000FA68B2FBF3F213469B0013445B001A467D
:103950007B685B69B2FBF3F305333B611FE07B6976
:10396000DB00FA68B2FBF3F213469B0013445B00E2
:103970001A467B685B69B2FBF3F305333B610EE0EB
:10398000FA687B69B2FBF3F213469B0013445B00B9
:103990001A467B685B69B2FBF3F305333B613B6915
:1039A0005C4AA2FB0323DB083B613B6903F0010394
:1039B000BB613A69BB69D31A5B08FB61BB691B0237
:1039C000BB6103E00223FB610023BB61FB69012BA8
:1039D00002D9FB69FF2B07D97B685B6C43F01002AF
:1039E0007B685A6401238FE07B681A69BB6942EAED
:1039F00003017B681B68FA690A431A627B681B68CB
:103A0000DB6923F47B6323F00F037A6851687A68DB
:103A1000926811437A68D26811437A6892690A43BE
:103A20001A437B681B6842F40062DA617B681B6A98
:103A3000012B61D17B68384A5A637B681B68374A1F
:103A4000934201D1364B01E04FF04023DB697A68A5
:103A5000126832498A4201D1314A01E04FF04022D6
:103A600023F47B6323F00F03D3617B681B682B4A2D
:103A7000934201D12A4B01E04FF0402302221A6207
:103A80007B681B68254A934201D1254B01E04FF02A
:103A90004023DB697B817B685B68B3F5007F03D0E3
:103AA0007B685B68002B03D14FF480733B6101E0BE
:103AB00000233B613B699AB27B689B6899B27B6843
:103AC000DB6898B27B689B699BB203439BB20B4354
:103AD0009BB213439AB27B8913439BB243F40063B6
:103AE0007B817B681B680D4A934201D10C4B01E03E
:103AF0004FF040237A89DA617B6800225A647B6840
:103B0000012283F84120002318462037BD4680BD9E
:103B10001B3C0008CDCCCCCC313D00080038004027
:103B20000034004080B483B000AF786000BF0C3731
:103B3000BD465DF8047B704780B483B000AF786009
:103B400000BF0C37BD465DF8047B704780B483B07E
:103B500000AF786000BF0C37BD465DF8047B70474E
:103B600080B582B000AF78607B685B6A1A887B683A
:103B70001B68DA607B685B6A9A1C7B685A627B68A8
:103B80005B8D9BB2013B9AB27B685A857B685B8DEB
:103B90009BB2002B0ED17B681B685A687B681B6840
:103BA00022F0A0025A607B68012283F841207868E5
:103BB000FFF7B8FF00BF0837BD4680BD80B582B0B3
:103BC00000AF78607B681B68DA687B68DB6A92B25A
:103BD0001A807B68DB6A9A1C7B68DA627B685B8E82
:103BE0009BB2013B9AB27B685A867B685B8E9BB224
:103BF000002B0ED17B681B685A687B681B6822F01B
:103C000060025A607B68012283F841207868FFF7E0
:103C100093FF00BF0837BD4680BD80B586B000AFBA
:103C200078607B681B689B687B617B6893F8413098
:103C3000DBB2042B3AD17B6903F00103012B09D1DC
:103C40007B681B685B6803F04003402B02D17868F7
:103C5000FFF7B4FF7B6903F04003402B26D17B685C
:103C60001B685B6803F02003202B1FD17B681B6857
:103C70005A687B681B6822F060025A6000233B612F
:103C80007B681B68DB683B617B681B689B683B61EA
:103C90003B697B68012283F841207B685B6C43F0C1
:103CA00002027B685A647868FFF750FF7B6893F8DC
:103CB0004130DBB2032B36D17B6903F00203022BC8
:103CC00009D17B681B685B6803F08003802B02D1FD
:103CD0007868FFF745FF7B6903F00803082B22D1C2
:103CE0007B681B685B6803F02003202B1BD17B687B
:103CF0001B685A687B681B6822F0A0025A60002388
:103D0000FB607B681B689B68FB60FB687B6801222B
:103D100083F841207B685B6C43F004027B685A6443
:103D20007868FFF713FF00BF1837BD4680BD00005D
:103D300080B588B000AF78607B681B689B68FB61CA
:103D40007B681B68A24A934201D1A24B01E04FF06D
:103D500040239B68BB617B681B685B687B617B68F9
:103D60001B689B4A934201D19A4B01E04FF04023DC
:103D70005B683B617B685B68B3F5007F04D07B6860
:103D80005B68002B40F09980FB6903F00203022B73
:103D900007D17B6903F08003002B02D0786800F024
:103DA00025F9BB6903F00103012B07D13B6903F03F
:103DB0004003002B02D0786800F0C8F9BB6903F01B
:103DC0004003402B3AD13B6903F02003002B35D050
:103DD0007B681B687E4A934201D17E4B01E04FF025
:103DE00040235A687B681B6879498B4201D1794B23
:103DF00001E04FF0402322F060025A607B681B68AC
:103E00005A687B681B6822F0A0025A600023FB609E
:103E10007B681B68DB68FB607B681B689B68FB60DA
:103E2000FB687B68012283F841207B685B6C43F070
:103E300002027B685A647868FFF788FEFB6903F02A
:103E40000803082B40F0BE807B6903F02003002BA1
:103E500000F0B8807B681B685A687B681B6822F09A
:103E6000A0025A607B681B68594A934201D1594BA2
:103E700001E04FF040235A687B681B6854498B422D
:103E800001D1544B01E04FF0402322F060025A6010
:103E90000023BB607B681B689B68BB60BB687B685A
:103EA000012283F841207B685B6C43F004027B684D
:103EB0005A647868FFF74AFE84E0BB6903F00203A6
:103EC000022B07D13B6903F08003002B02D07868F6
:103ED00000F0BEF8FB6903F00103012B07D17B69F9
:103EE00003F04003002B02D0786800F0FDF8FB6976
:103EF00003F04003402B2FD17B6903F02003002BFC
:103F00002AD07B681B685A687B681B6822F06002B5
:103F10005A607B681B682E4A934201D12D4B01E009
:103F20004FF040235A687B681B6829498B4201D1B6
:103F3000284B01E04FF0402322F0A0025A607B683A
:103F4000012283F841207B685B6C43F002027B68AE
:103F50005A647868FFF7FAFDBB6903F00803082B81
:103F600031D13B6903F02003002B2CD07B681B6808
:103F7000174A934201D1174B01E04FF040235A6892
:103F80007B681B6812498B4201D1124B01E04FF054
:103F9000402322F0A0025A607B681B685A687B6845
:103FA0001B6822F060025A607B68012283F841207E
:103FB0007B685B6C43F004027B685A647868FFF7A7
:103FC000C5FD00E000BF00BF2037BD4680BD00BF7B
:103FD000003800400034004080B483B000AF786007
:103FE00000BF0C37BD465DF8047B704780B582B0DA
:103FF00000AF78607B685B6A991C7A6851621A88A6
:104000007B681B68DA607B685B8D9BB2013B9AB270
:104010007B685A857B685B8D9BB2002B13D17B68D4
:104020001B685A687B681B6822F0A0025A607B6894
:104030005B8E9BB2002B06D17B68012283F8412066
:104040007868FFF7C9FF00BF0837BD4680BD000094
:1040500080B582B000AF78607B685B6A991C7A6833
:10406000516219887B681B681D4A934201D11D4B20
:1040700001E04FF040230A46DA607B685B8D9BB21B
:10408000013B9AB27B685A857B685B8D9BB2002BA3
:1040900021D17B681B68124A934201D1114B01E088
:1040A0004FF040235A687B681B680D498B4201D151
:1040B0000C4B01E04FF0402322F0A0025A607B68D5
:1040C0005B8E9BB2002B06D17B68012283F84120D6
:1040D0007868FFF781FF00BF0837BD4680BD00BF8D
:1040E000003800400034004080B582B000AF7860F6
:1040F0007B681B68D8687B68DB6A991C7A68D16228
:1041000082B21A807B685B8E9BB2013B9AB27B685D
:104110005A867B685B8E9BB2002B13D17B681B6831
:104120005A687B681B6822F060025A607B685B8D6E
:104130009BB2002B06D17B68012283F8412078686E
:10414000FFF74AFF00BF0837BD4680BD80B582B08B
:1041500000AF78607B681B68204A934201D1204BF6
:1041600001E04FF04023D8687B68DB6A991C7A68CD
:10417000D16282B21A807B685B8E9BB2013B9AB29D
:104180007B685A867B685B8E9BB2002B21D17B6853
:104190001B68124A934201D1114B01E04FF04023BA
:1041A0005A687B681B680D498B4201D10C4B01E0BA
:1041B0004FF0402322F060025A607B685B8D9BB217
:1041C000002B06D17B68012283F841207868FFF735
:1041D00003FF00BF0837BD4680BD00BF0038004068
:1041E00000340040F0B58FB00AAF78607B68002BD8
:1041F00001D101230FE17B681B68BB607B6893F8EA
:10420000BD33DBB2002B06D17B68002283F8BC23D0
:10421000786807F0CDFE7B68032283F8BD23BB6876
:10422000DB6B03F48073002B02D17B6800221A61E0
:104230007B681B68184602F05EFD7B681B683B606C
:104240007E686D4606F110040FCC0FC50FCC0FC56C
:1042500094E8030085E80300331D0ECB386802F0B4
:1042600035FC0346002B05D07B68022283F8BD2372
:104270000123D0E07B681B680021184602F04CFD4A
:104280000023FB734AE0FA7B79681346DB009B1A34
:104290009B000B443D3301221A70FA7B7968134668
:1042A000DB009B1A9B000B443C33FA7B1A70FA7BB1
:1042B000FB7B98B279681346DB009B1A9B000B448A
:1042C000423302461A80FA7B79681346DB009B1A58
:1042D0009B000B443F3300221A70FA7B7968134627
:1042E000DB009B1A9B000B44443300221A60FA7BCC
:1042F00079681346DB009B1A9B000B44483300226D
:104300001A60FA7B79681346DB009B1A9B000B440A
:10431000503300221A60FB7B0133FB73FA7B7B680E
:104320005B689A42AFD30023FB7344E0FA7B796861
:104330001346DB009B1A9B000B4403F2FD13002283
:104340001A70FA7B79681346DB009B1A9B000B44BA
:1043500003F5FE73FA7B1A70FA7B79681346DB006B
:104360009B1A9B000B4403F2FF1300221A70FA7B86
:1043700079681346DB009B1A9B000B4403F501731D
:1043800000221A60FA7B79681346DB009B1A9B00B7
:104390000B4403F5027300221A60FA7B7968134616
:1043A000DB009B1A9B000B4403F5047300221A6088
:1043B000FB7B0133FB73FA7B7B685B689A42B5D366
:1043C0007B681B683B607E686D4606F110040FCC6D
:1043D0000FC50FCC0FC594E8030085E80300331D1B
:1043E0000ECB386802F0C2FC0346002B05D07B6878
:1043F000022283F8BD2301230DE07B68002283F8AD
:1044000038207B68012283F8BD237B681B6818462F
:1044100003F00AFD002318461437BD46F0BD80B5F1
:1044200084B000AF78607B681B68FB607B6893F8A2
:10443000BC33012B01D1022320E07B68012283F8E9
:10444000BC237B689B6A012B09D17B689B69012B8C
:1044500005D0FB689B6B43F48032FB689A637B68F2
:104460001B68184602F036FC7B681B68184603F090
:10447000BAFC7B68002283F8BC230023184610375F
:10448000BD4680BD90B58DB000AF78607B681B687D
:104490003B623B6AFB617B681B68184603F078FD52
:1044A0000346002B40F09D837B681B68184603F091
:1044B000DCFC0346002B00F093837B681B681846E6
:1044C00003F0D3FC034603F00203022B07D17B6801
:1044D0001B685A697B681B6802F002025A617B689C
:1044E0001B68184603F0C1FC034603F01003102BB1
:1044F00061D17B681B689A697B681B6822F0100297
:104500009A613B6A1B6ABB61BB6903F00F021346E9
:10451000DB009B1A9B0003F5FC737A681344043399
:104520007B61BB695B0C03F00F03022B24D1BA69DA
:1045300047F6F0731340002B35D07B69D968BB690F
:104540001B099BB2C3F30A039BB21A46386A03F0F5
:1045500027FB7B69DA68BB691B09C3F30A031A44AA
:104560007B69DA607B699A69BB691B09C3F30A033B
:104570001A447B699A6116E0BB695B0C03F00F0378
:10458000062B10D17B6803F5717308221946386A2F
:1045900003F006FB7B699A69BB691B09C3F30A0335
:1045A0001A447B699A617B681B689A697B681B68FF
:1045B00042F010029A617B681B68184603F055FCB4
:1045C000034603F40023B3F5002F6ED100237B6272
:1045D0007B681B68184603F05BFCB86262E0BB6A4C
:1045E00003F00103002B57D07B681B687A6AD2B2B4
:1045F0001146184603F080FC38613B6903F0010363
:10460000002B0CD07B6A5A01FB69134403F530631D
:104610001A4601239360796A786800F0B1FD3B691E
:1046200003F00803002B0CD07B6A5A01FB6913448A
:1046300003F530631A4608239360796A786800F0BE
:10464000ABFE3B6903F01003002B08D07B6A5A01D4
:10465000FB69134403F530631A46102393603B69EA
:1046600003F02003002B08D07B6A5A01FB69134436
:1046700003F530631A46202393603B6903F400532B
:10468000002B09D07B6A5A01FB69134403F53063A0
:104690001A464FF4005393607B6A01337B62BB6A16
:1046A0005B08BB62BB6A002B99D17B681B6818460C
:1046B00003F0DBFB034603F48023B3F5802F40F0C7
:1046C000C0807B681B68184603F0FCFBB8620023BF
:1046D0007B62B2E0BB6A03F00103002B00F0A7800D
:1046E0007B681B687A6AD2B21146184603F022FC36
:1046F00038613B6903F00103002B57D07B6A03F05C
:104700000F03012202FA03F3FB60FB6903F5006368
:104710005A6BFB68DB43F96901F5006113404B6399
:104720007B6A5A01FB69134403F510631A4601239F
:1047300093607B681B69012B32D179687A6A1346D2
:10474000DB009B1A9B000B444833196878687A6A2F
:104750001346DB009B1A9B00034444331B68194437
:1047600078687A6A1346DB009B1A9B00034448333F
:1047700019607B6A002B13D179687A6A1346DB00D3
:104780009B1A9B000B4450331B68002B08D17B689D
:1047900018687B6803F571731A46012103F02AFC3F
:1047A0007B6ADBB21946786807F091FC3B6903F03D
:1047B0000803002B08D07B6A5A01FB69134403F5F8
:1047C00010631A46082393603B6903F01003002B23
:1047D00008D07B6A5A01FB69134403F510631A463B
:1047E000102393603B6903F04003002B08D07B6AE1
:1047F0005A01FB69134403F510631A464023936082
:104800003B6903F00203002B08D07B6A5A01FB6965
:10481000134403F510631A46022393603B6903F0C7
:104820008003002B03D0796A786800F01BFC7B6A58
:1048300001337B62BB6A5B08BB62BB6A002B7FF4FF
:1048400049AF7B681B68184603F00FFB034603F073
:104850000043B3F1004F22D1FB6903F500635B68AD
:10486000FA6902F5006223F0010353607B6893F854
:10487000F433012B08D17B68002283F8F423002154
:10488000786800F027FE02E0786807F08DFC7B680E
:104890001B685A697B681B6802F000425A617B689A
:1048A0001B68184603F0E1FA034603F40063B3F50E
:1048B000006F12D1FB6903F500639B6803F00103ED
:1048C000012B02D1786807F049FC7B681B685A69A4
:1048D0007B681B6802F400625A617B681B6818469B
:1048E00003F0C3FA034603F48053B3F5805F40F04E
:1048F000C780FB6903F500635B68FA6902F5006233
:1049000023F0010353607B681B681021184602F0F6
:1049100091FB0023FB6256E0FB6A5A01FB691344DA
:1049200003F510631A464FF67F339360FB6A5A0112
:10493000FB69134403F510631B68FA6A5101FA69B5
:104940000A4402F5106223F400131360FB6A5A0153
:10495000FB69134403F510631B68FA6A5101FA6995
:104960000A4402F5106243F000631360FB6A5A01C7
:10497000FB69134403F530631A464FF67F339360A7
:10498000FB6A5A01FB69134403F530631B68FA6A3A
:104990005101FA690A4402F5306223F400131360EE
:1049A000FB6A5A01FB69134403F530631B68FA6A1A
:1049B0005101FA690A4402F5306243F00063136062
:1049C000FB6A0133FB627B685B68FA6A9A42A3D395
:1049D000FB6903F50063DB69FA6902F5006243F0E5
:1049E0000113D3617B681B6B002B16D0FB6903F5A9
:1049F0000063D3F88430FA6902F5006243F00B03D8
:104A0000C2F88430FB6903F500635B6CFA6902F558
:104A1000006243F00B03536415E0FB6903F5006388
:104A20005B69FA6902F5006243F4005343F02B031B
:104A30005361FB6903F500631B69FA6902F50062C3
:104A400043F00B031361FB6903F500631B68FA690C
:104A500002F5006223F4FE6313607B6818687B68CC
:104A60001B69D9B27B6803F571731A4603F0C2FA69
:104A70007B681B685A697B681B6802F480525A6124
:104A80007B681B68184603F0F0F9034603F40053F3
:104A9000B3F5005F24D17B681B68184603F086FAE3
:104AA0007B681B68184602F026FB03461A467B68A3
:104AB000DA607B681C6801F047F901467B68DB68B7
:104AC000DBB21A46204602F063F8786807F027FB4D
:104AD0007B681B685A697B681B6802F400525A6144
:104AE0007B681B68184603F0C0F9034603F008030F
:104AF000082B0AD1786807F004FB7B681B685A69A9
:104B00007B681B6802F008025A617B681B681846C4
:104B100003F0ABF9034603F48013B3F5801F0FD104
:104B200000237B627B6ADBB21946786807F05CFB86
:104B30007B681B685A697B681B6802F480125A61A3
:104B40007B681B68184603F090F9034603F40013D2
:104B5000B3F5001F0FD100237B627B6ADBB21946DD
:104B6000786807F02FFB7B681B685A697B681B68B5
:104B700002F400125A617B681B68184603F075F94D
:104B8000034603F08043B3F1804F0AD1786807F001
:104B90003DFB7B681B685A697B681B6802F080429A
:104BA0005A617B681B68184603F05FF9034603F0FF
:104BB0000403042B15D17B681B685B68BB61BB6970
:104BC00003F00403002B02D0786807F02DFB7B680C
:104BD0001B6859687B681B68BA690A435A6000E021
:104BE00000BF3437BD4690BD80B582B000AF78605D
:104BF0000B46FB707B6893F8BC33012B01D1022379
:104C000013E07B68012283F8BC237B68FA7883F881
:104C100038207B681B68FA781146184603F0BDF807
:104C20007B68002283F8BC23002318460837BD4662
:104C300080BD80B584B000AF7860084611461A4642
:104C40000346FB700B463B801346BB700023FB7290
:104C500097F90330002B0FDAFB7803F00F021346AD
:104C6000DB009B1A9B0038337A6813440433FB60E3
:104C7000FB6801225A700FE0FB7803F00F02134625
:104C8000DB009B1A9B0003F5FC737A681344043322
:104C9000FB60FB6800225A70FB7803F00F03DAB266
:104CA000FB681A703A88FB689A60FB68BA78DA7019
:104CB000FB685B78002B04D0FB681B789AB2FB681A
:104CC000DA80BB78022B02D1FB6800221A717B6864
:104CD00093F8BC33012B01D102230EE07B68012243
:104CE00083F8BC237B681B68F968184602F028FA31
:104CF0007B68002283F8BC23FB7A18461037BD4638
:104D000080BD80B584B000AF78600B46FB7097F92A
:104D10000330002B0FDAFB7803F00F021346DB00A1
:104D20009B1A9B0038337A6813440433FB60FB689A
:104D300001225A700FE0FB7803F00F021346DB00EC
:104D40009B1A9B0003F5FC737A6813440433FB60E1
:104D5000FB6800225A70FB7803F00F03DAB2FB689D
:104D60001A707B6893F8BC33012B01D102230EE04B
:104D70007B68012283F8BC237B681B68F9681846AE
:104D800002F066FA7B68002283F8BC2300231846F1
:104D90001037BD4680BD80B586B000AFF8607A6040
:104DA0003B600B46FB72FB7A03F00F021346DB00FD
:104DB0009B1A9B0003F5FC73FA68134404337B6170
:104DC0007B697A68DA607B693A685A617B6900229C
:104DD0009A617B6900225A70FB7A03F00F03DAB202
:104DE0007B691A70FB681B69012B02D17A687B69A9
:104DF0001A61FB7A03F00F03002B09D1FB681868D6
:104E0000FB681B69DBB21A46796902F041FD08E0D4
:104E1000FB681868FB681B69DBB21A46796902F007
:104E2000F3FA002318461837BD4680BD80B483B01E
:104E300000AF78600B46FB70FB7803F00F027968D7
:104E40001346DB009B1A9B000B4403F505731B689C
:104E500018460C37BD465DF8047B704780B586B0B8
:104E600000AFF8607A603B600B46FB72FB7A03F0A0
:104E70000F021346DB009B1A9B003833FA68134479
:104E800004337B617B697A68DA607B693A685A61CE
:104E90007B6900229A617B6901225A70FB7A03F0D8
:104EA0000F03DAB27B691A70FB681B69012B02D110
:104EB0007A687B691A61FB7A03F00F03002B09D132
:104EC000FB681868FB681B69DBB21A46796902F057
:104ED000DFFC08E0FB681868FB681B69DBB21A4658
:104EE000796902F091FA002318461837BD4680BD53
:104EF00080B584B000AF78600B46FB70FB7803F0A0
:104F00000F027B685B689A4201D9012350E097F950
:104F10000330002B0FDAFB7803F00F021346DB009F
:104F20009B1A9B0038337A6813440433FB60FB6898
:104F300001225A700DE0FA781346DB009B1A9B00A1
:104F400003F5FC737A6813440433FB60FB680022AA
:104F50005A70FB6801229A70FB7803F00F03DAB2F3
:104F6000FB681A707B6893F8BC33012B01D10223D4
:104F70001EE07B68012283F8BC237B681B68F9680C
:104F8000184602F036FEFB7803F00F03002B0AD11F
:104F90007B6818687B681B69D9B27B6803F57173FD
:104FA0001A4603F027F87B68002283F8BC2300230D
:104FB00018461037BD4680BD80B584B000AF78601C
:104FC0000B46FB70FB7803F00F027B685B689A422C
:104FD00001D9012342E097F90330002B0FDAFB7867
:104FE00003F00F021346DB009B1A9B0038337A68EC
:104FF00013440433FB60FB6801225A700FE0FB7816
:1050000003F00F021346DB009B1A9B0003F5FC73B1
:105010007A6813440433FB60FB6800225A70FB6813
:1050200000229A70FB7803F00F03DAB2FB681A7063
:105030007B6893F8BC33012B01D102230EE07B681F
:10504000012283F8BC237B681B68F968184602F0CC
:105050003EFE7B68002283F8BC23002318461037ED
:10506000BD4680BD80B58AB002AF786039607B688C
:105070001B687B617B693B613A681346DB009B1AC6
:105080009B0038337A6813440433FB60FB689A69E9
:10509000FB685B699A4201D901236CE0FB685A699D
:1050A000FB689B69D31AFB61FB689B68FA699A42AB
:1050B00002D9FB689B68FB61FB6903339B08BB61FA
:1050C0002BE0FB685A69FB689B69D31AFB61FB689C
:1050D0009B68FA699A4202D9FB689B68FB61FB698D
:1050E00003339B08BB61FB68D9683B68DAB2FB6994
:1050F00098B27B681B69DBB200930346786902F0C3
:105100001AFDFB68DA68FB691A44FB68DA60FB6821
:105110009A69FB691A44FB689A613B685A013B69CA
:10512000134403F510639B699BB2BA699A4209D88C
:10513000FB689A69FB685B699A4203D2FB685B690A
:10514000002BBED1FB685A69FB689B699A4211D853
:105150003B6803F00F03012202FA03F3BB603B69D3
:1051600003F500635A6BBB68DB43396901F50061E5
:1051700013404B63002318462037BD4680BD000016
:1051800080B586B000AF786039607B681B687B6152
:105190007B693B617B693C3304331B68FB603B6884
:1051A0005A013B69134403F530639B68BB607B681D
:1051B0001B69012B40F0A080BB6803F00803002BA3
:1051C00015D0FB68724A934240F2DD80BB6803F45D
:1051D0000043002B00F0D7803B685A013B69134421
:1051E00003F530631A464FF400439360CBE0BB688D
:1051F00003F02003002B09D03B685A013B6913449C
:1052000003F530631A4620239360BCE0BB6803F0CB
:105210002803002B40F0B780FB685D4A93420FD90A
:10522000BB6803F40043002B0AD03B685A013B697A
:10523000134403F530631A464FF400439360A2E031
:1052400079683A681346DB009B1A9B000B4403F510
:1052500001731A683B6859013B690B4403F53063DD
:105260001B69C3F31203D11A78683A681346DB004E
:105270009B1A9B00034403F50573196079683A682B
:105280001346DB009B1A9B000B4403F5027319685D
:1052900078683A681346DB009B1A9B00034403F5C9
:1052A00001731B68194478683A681346DB009B1A3F
:1052B0009B00034403F5027319603B68002B14D173
:1052C00079683A681346DB009B1A9B000B4403F590
:1052D00004731B68002B08D17B6818687B6803F592
:1052E00071731A46012102F085FE3B68DBB2194654
:1052F000786806F0D1FE46E0FB68264A934224D146
:10530000BB6803F40043002B0AD03B685A013B6999
:10531000134403F530631A464FF40043936032E0C0
:10532000BB6803F02003002B08D03B685A013B699F
:10533000134403F530631A46202393603B68DBB2C5
:105340001946786806F0A8FE1DE03B68002B14D1D2
:1053500079683A681346DB009B1A9B000B4403F5FF
:1053600004731B68002B08D17B6818687B6803F501
:1053700071731A46002102F03DFE3B68DBB219460C
:10538000786806F089FE002318461837BD4680BDB0
:105390000A30544F0A31544F80B586B000AF786060
:1053A00039607B681B687B617B693B617B693C334F
:1053B00004331B68FB603B685A013B69134403F5E7
:1053C00030639B68BB60FB68154A93420ED9BB688B
:1053D00003F40043002B09D03B685A013B69134496
:1053E00003F530631A464FF400439360786806F083
:1053F00041FEFB680A4A93420CD97B681B69012B6A
:1054000008D17B6818687B6803F571731A4601211F
:1054100002F0F0FD002318461837BD4680BD00BFDE
:105420000A30544F80B485B000AF78600B46FB70F3
:1054300013463B807B681B685B6ABB60FB78002B74
:1054400007D13B8819047B681B68BA680A439A62D3
:1054500028E07B681B689B6A1B0CBA681344BB601E
:105460000023FB730DE07B681A68FB7B40339B00D5
:1054700013445B681B0CBA681344BB60FB7B0133AD
:10548000FB73FA7BFB78013B9A42ECD33B88180410
:105490007B681968FB78013BBA68024340339B0084
:1054A0000B445A60002318461437BD465DF8047B50
:1054B000704780B483B000AF78600B467B807B6818
:1054C0001B687A885A62002318460C37BD465DF87F
:1054D000047B704780B483B000AF78600B46FB70EC
:1054E00000BF0C37BD465DF8047B704780B586B0C1
:1054F00000AF78607B68002B01D101235BE27B6801
:105500001B6803F00103002B75D0A34B9B6803F0CD
:105510000C03042B0CD0A04B9B6803F00C03082B4E
:1055200012D19D4B5B6803F48003B3F5800F0BD160
:10553000994B1B6803F40033002B5BD07B685B68DE
:10554000002B57D1012336E27B685B68B3F5803FBF
:1055500006D1914B1B68904A43F4803313601DE0E1
:105560007B685B68B3F5A02F0CD18B4B1B688A4A14
:1055700043F480231360884B1B68874A43F48033CD
:1055800013600BE0844B1B68834A23F48033136061
:10559000814B1B68804A23F4802313607B685B681F
:1055A000002B13D0FCF7EEFE386108E0FCF7EAFEB2
:1055B00002463B69D31A642B01D90323FBE1764BE6
:1055C0001B6803F40033002BF0D014E0FCF7DAFE84
:1055D000386108E0FCF7D6FE02463B69D31A642B1B
:1055E00001D90323E7E16C4B1B6803F40033002B64
:1055F000F0D100E000BF7B681B6803F00203002BC2
:1056000063D0654B9B6803F00C03002B0BD0624BFF
:105610009B6803F00C03082B1CD15F4B5B6803F401
:105620008003002B16D15C4B1B6803F00203002B98
:1056300005D07B68DB68012B01D00123BBE1564B11
:105640001B6823F0F8027B681B69DB005249134397
:105650000B603AE07B68DB68002B20D04F4B0122C7
:105660001A60FCF78FFE386108E0FCF78BFE0246FB
:105670003B69D31A022B01D903239CE1464B1B68DB
:1056800003F00203002BF0D0434B1B6823F0F80219
:105690007B681B69DB00404913430B6015E03F4BFF
:1056A00000221A60FCF76EFE386108E0FCF76AFE23
:1056B00002463B69D31A022B01D903237BE1364B07
:1056C0001B6803F00203002BF0D17B681B6803F01A
:1056D0000803002B30D07B685B69002B16D0304B61
:1056E00001221A60FCF74EFE386108E0FCF74AFE22
:1056F00002463B69D31A022B01D903235BE1264BF7
:105700005B6F03F00203002BF0D015E0244B002266
:105710001A60FCF737FE386108E0FCF733FE0246FA
:105720003B69D31A022B01D9032344E11A4B5B6F67
:1057300003F00203002BF0D17B681B6803F0040325
:10574000002B00F0A0800023FB75134B1B6C03F0B3
:105750008053002B0FD10023BB600F4B1B6C0E4AF4
:1057600043F0805313640C4B1B6C03F08053BB60FD
:10577000BB680123FB750B4B1B6803F48073002B84
:1057800021D1084B1B68074A43F480731360FCF770
:10579000F9FD386111E000BF0038024000004742C7
:1057A000800E474200700040FCF7ECFD02463B696A
:1057B000D31A022B01D90323FDE0814B1B6803F4AC
:1057C0008073002BF0D07B689B68012B06D17D4B4A
:1057D0001B6F7C4A43F0010313671CE07B689B68E6
:1057E000052B0CD1774B1B6F764A43F004031367EC
:1057F000744B1B6F734A43F0010313670BE0714B4B
:105800001B6F704A23F0010313676E4B1B6F6D4AC9
:1058100023F0040313677B689B68002B15D0FCF70B
:10582000B1FD38610AE0FCF7ADFD02463B69D31AD1
:1058300041F28832934201D90323BCE0614B1B6FD4
:1058400003F00203002BEED014E0FCF79BFD38615F
:105850000AE0FCF797FD02463B69D31A41F2883211
:10586000934201D90323A6E0564B1B6F03F00203BA
:10587000002BEED1FB7D012B05D1524B1B6C514A05
:1058800023F0805313647B689B69002B00F09280A7
:105890004C4B9B6803F00C03082B5CD07B689B6926
:1058A000022B41D1484B00221A60FCF76BFD386196
:1058B00008E0FCF767FD02463B69D31A022B01D9C9
:1058C000032378E03F4B1B6803F00073002BF0D1FB
:1058D0007B68DA697B681B6A1A437B685B6A9B0199
:1058E0001A437B689B6A5B08013B1B041A437B6875
:1058F000DB6A1B06334913434B60334B01221A60AA
:10590000FCF740FD386108E0FCF73CFD02463B69CE
:10591000D31A022B01D903234DE02A4B1B6803F055
:105920000073002BF0D045E0274B00221A60FCF7F3
:1059300029FD386108E0FCF725FD02463B69D31AD2
:10594000022B01D9032336E01E4B1B6803F00073C2
:10595000002BF0D12EE07B689B69012B01D1012344
:1059600029E0184B5B68FB60FB6803F480027B68EE
:10597000DB699A421CD1FB6803F03F027B681B6A1B
:105980009A4215D1FA6847F6C07313407A68526A92
:1059900093420DD1FB6803F440327B689B6A9A42C4
:1059A00006D1FB6803F070627B68DB6A9A4201D023
:1059B000012300E0002318461837BD4680BD00BF14
:1059C00000700040003802406000474280B584B05B
:1059D00000AF786039607B68002B01D10123CCE0F7
:1059E000684B1B6803F00F033A689A420CD9654B69
:1059F0003A68D2B21A70634B1B6803F00F033A681F
:105A00009A4201D00123B8E07B681B6803F00203CF
:105A1000002B20D07B681B6803F00403002B05D00B
:105A2000594B9B68584A43F4E05393607B681B686A
:105A300003F00803002B05D0534B9B68524A43F4F4
:105A400060439360504B9B6823F0F0027B689B6837
:105A50004D4913438B607B681B6803F00103002BE7
:105A600044D07B685B68012B07D1474B1B6803F46C
:105A70000033002B19D101237FE07B685B68022B88
:105A800003D07B685B68032B07D13F4B1B6803F097
:105A90000073002B09D101236FE03B4B1B6803F01F
:105AA0000203002B01D1012367E0374B9B6823F0F1
:105AB00003027B685B68344913438B60FCF762FC2C
:105AC000F8600AE0FCF75EFC0246FB68D31A41F27C
:105AD0008832934201D903234FE02B4B9B6803F09C
